:1000000012C02CC02BC02AC029C028C027C026C0BF
:1000100025C024C023C023C021C020C01FC01EC0D3
:100020001DC01CC01BC011241FBECFE5D4E0DEBF25
:10003000CDBF10E0A0E6B0E0E6E2F1E002C005903E
:100040000D92A236B107D9F710E0A2E6B0E001C0E8
:100050001D92A038B107E1F737D063C0D1CF1F920E
:100060000F920FB60F9211248F939F938CB18093B0
:100070007800813341F45D9BFECF83E58CB9C29A51
:1000800080E699E013C0823341F45D9BFECF8DE49E
:100090008CB9C29A80EA9FE009C0833371F45D9BFA
:1000A000FECF8EE48CB9C29A80E89CE00197F1F70C
:1000B000C29880EE9EE20197F1F79F918F910F9089
:1000C0000FBE0F901F90189510BC89E189B988E187
:1000D0008AB986E880BD579A7894BA9AA29AA49A67
:1000E000A3E544E571E462E550E228EC30E05D9B75
:1000F000FECFACB95D9BFECF4CB95D9BFECF7CB90A
:100100005D9BFECF6CB95D9BFECF4CB95D9BFECF76
:100110005CB980E197E2F9013197F1F70197D9F7DE
:06012000E6CFF894FFCFCA
:020126000101D5
:00000001FF
